:020000020000FC
:1000000000C080E000EF20EF78EF4FEF01B924B996
:1000100070930A0147B900C010B133B11F703F702F
:10002000609109016770812F98946030B9F09894BD
:100030006130A9F098946230A9F098946330A9F0E7
:1000400098946430A9F098946530A9F0989466303B
:10005000A9F098946730A9F09894DECFD2CF0E948F
:10006000480012C00E944A000FC00E944C000CC001
:100070000E944F0009C00E94560006C00E9458000E
:1000800003C00E945A0000C0582F509558B9C4CFE1
:10009000830F0895831B0895839F802D089598945E
:1000A000303019F03A958695FACF08958323089554
:0800B000832B089583270895B6
:00000001FF
